{
  "_format": "hh-sol-artifact-1",
  "contractName": "TicketMarketplace",
  "sourceName": "contracts/TicketMarketplace.sol",
  "abi": [
    {
      "inputs": [
        {
          "internalType": "address",
          "name": "_ticketContract",
          "type": "address"
        }
      ],
      "stateMutability": "nonpayable",
      "type": "constructor"
    },
    {
      "anonymous": false,
      "inputs": [
        {
          "indexed": true,
          "internalType": "uint256",
          "name": "tokenId",
          "type": "uint256"
        },
        {
          "indexed": true,
          "internalType": "address",
          "name": "seller",
          "type": "address"
        }
      ],
      "name": "ListingCancelled",
      "type": "event"
    },
    {
      "anonymous": false,
      "inputs": [
        {
          "indexed": true,
          "internalType": "address",
          "name": "previousOwner",
          "type": "address"
        },
        {
          "indexed": true,
          "internalType": "address",
          "name": "newOwner",
          "type": "address"
        }
      ],
      "name": "OwnershipTransferred",
      "type": "event"
    },
    {
      "anonymous": false,
      "inputs": [
        {
          "indexed": false,
          "internalType": "uint256",
          "name": "newFee",
          "type": "uint256"
        }
      ],
      "name": "PlatformFeeUpdated",
      "type": "event"
    },
    {
      "anonymous": false,
      "inputs": [
        {
          "indexed": true,
          "internalType": "uint256",
          "name": "tokenId",
          "type": "uint256"
        },
        {
          "indexed": true,
          "internalType": "address",
          "name": "seller",
          "type": "address"
        },
        {
          "indexed": false,
          "internalType": "uint256",
          "name": "price",
          "type": "uint256"
        }
      ],
      "name": "TicketListed",
      "type": "event"
    },
    {
      "anonymous": false,
      "inputs": [
        {
          "indexed": true,
          "internalType": "uint256",
          "name": "tokenId",
          "type": "uint256"
        },
        {
          "indexed": true,
          "internalType": "address",
          "name": "seller",
          "type": "address"
        },
        {
          "indexed": true,
          "internalType": "address",
          "name": "buyer",
          "type": "address"
        },
        {
          "indexed": false,
          "internalType": "uint256",
          "name": "price",
          "type": "uint256"
        }
      ],
      "name": "TicketSold",
      "type": "event"
    },
    {
      "inputs": [
        {
          "internalType": "uint256",
          "name": "tokenId",
          "type": "uint256"
        }
      ],
      "name": "buyTicket",
      "outputs": [],
      "stateMutability": "payable",
      "type": "function"
    },
    {
      "inputs": [
        {
          "internalType": "uint256",
          "name": "tokenId",
          "type": "uint256"
        }
      ],
      "name": "cancelListing",
      "outputs": [],
      "stateMutability": "nonpayable",
      "type": "function"
    },
    {
      "inputs": [],
      "name": "getBalance",
      "outputs": [
        {
          "internalType": "uint256",
          "name": "",
          "type": "uint256"
        }
      ],
      "stateMutability": "view",
      "type": "function"
    },
    {
      "inputs": [
        {
          "internalType": "uint256",
          "name": "tokenId",
          "type": "uint256"
        }
      ],
      "name": "getListing",
      "outputs": [
        {
          "internalType": "address",
          "name": "seller",
          "type": "address"
        },
        {
          "internalType": "uint256",
          "name": "price",
          "type": "uint256"
        },
        {
          "internalType": "bool",
          "name": "active",
          "type": "bool"
        }
      ],
      "stateMutability": "view",
      "type": "function"
    },
    {
      "inputs": [
        {
          "internalType": "uint256",
          "name": "tokenId",
          "type": "uint256"
        }
      ],
      "name": "isListed",
      "outputs": [
        {
          "internalType": "bool",
          "name": "",
          "type": "bool"
        }
      ],
      "stateMutability": "view",
      "type": "function"
    },
    {
      "inputs": [
        {
          "internalType": "uint256",
          "name": "tokenId",
          "type": "uint256"
        },
        {
          "internalType": "uint256",
          "name": "price",
          "type": "uint256"
        }
      ],
      "name": "listTicket",
      "outputs": [],
      "stateMutability": "nonpayable",
      "type": "function"
    },
    {
      "inputs": [
        {
          "internalType": "uint256",
          "name": "",
          "type": "uint256"
        }
      ],
      "name": "listings",
      "outputs": [
        {
          "internalType": "address",
          "name": "seller",
          "type": "address"
        },
        {
          "internalType": "uint256",
          "name": "price",
          "type": "uint256"
        },
        {
          "internalType": "bool",
          "name": "active",
          "type": "bool"
        }
      ],
      "stateMutability": "view",
      "type": "function"
    },
    {
      "inputs": [],
      "name": "owner",
      "outputs": [
        {
          "internalType": "address",
          "name": "",
          "type": "address"
        }
      ],
      "stateMutability": "view",
      "type": "function"
    },
    {
      "inputs": [],
      "name": "platformFeePercent",
      "outputs": [
        {
          "internalType": "uint256",
          "name": "",
          "type": "uint256"
        }
      ],
      "stateMutability": "view",
      "type": "function"
    },
    {
      "inputs": [],
      "name": "renounceOwnership",
      "outputs": [],
      "stateMutability": "nonpayable",
      "type": "function"
    },
    {
      "inputs": [
        {
          "internalType": "uint256",
          "name": "newFee",
          "type": "uint256"
        }
      ],
      "name": "setPlatformFee",
      "outputs": [],
      "stateMutability": "nonpayable",
      "type": "function"
    },
    {
      "inputs": [],
      "name": "ticketContract",
      "outputs": [
        {
          "internalType": "contract IEventTicketNFT",
          "name": "",
          "type": "address"
        }
      ],
      "stateMutability": "view",
      "type": "function"
    },
    {
      "inputs": [],
      "name": "totalFeesCollected",
      "outputs": [
        {
          "internalType": "uint256",
          "name": "",
          "type": "uint256"
        }
      ],
      "stateMutability": "view",
      "type": "function"
    },
    {
      "inputs": [
        {
          "internalType": "address",
          "name": "newOwner",
          "type": "address"
        }
      ],
      "name": "transferOwnership",
      "outputs": [],
      "stateMutability": "nonpayable",
      "type": "function"
    },
    {
      "inputs": [
        {
          "internalType": "uint256",
          "name": "tokenId",
          "type": "uint256"
        },
        {
          "internalType": "uint256",
          "name": "newPrice",
          "type": "uint256"
        }
      ],
      "name": "updateListingPrice",
      "outputs": [],
      "stateMutability": "nonpayable",
      "type": "function"
    },
    {
      "inputs": [],
      "name": "withdrawFees",
      "outputs": [],
      "stateMutability": "nonpayable",
      "type": "function"
    },
    {
      "stateMutability": "payable",
      "type": "receive"
    }
  ],
  "bytecode": "0x6080604052600260045534801561001557600080fd5b506040516129ca3803806129ca833981810160405281019061003791906101d3565b600160008190555061005b6100506100a260201b60201c565b6100aa60201b60201c565b80600260006101000a81548173ffffffffffffffffffffffffffffffffffffffff021916908373ffffffffffffffffffffffffffffffffffffffff16021790555050610200565b600033905090565b6000600160009054906101000a900473ffffffffffffffffffffffffffffffffffffffff16905081600160006101000a81548173ffffffffffffffffffffffffffffffffffffffff021916908373ffffffffffffffffffffffffffffffffffffffff1602179055508173ffffffffffffffffffffffffffffffffffffffff168173ffffffffffffffffffffffffffffffffffffffff167f8be0079c531659141344cd1fd0a4f28419497f9722a3daafe3b4186f6b6457e060405160405180910390a35050565b600080fd5b600073ffffffffffffffffffffffffffffffffffffffff82169050919050565b60006101a082610175565b9050919050565b6101b081610195565b81146101bb57600080fd5b50565b6000815190506101cd816101a7565b92915050565b6000602082840312156101e9576101e8610170565b5b60006101f7848285016101be565b91505092915050565b6127bb8061020f6000396000f3fe6080604052600436106100f75760003560e01c806367dd74ca1161008a578063c460494311610059578063c4604943146102de578063de74e57b14610307578063f2fde38b14610346578063fcce48831461036f576100fe565b806367dd74ca14610255578063715018a6146102715780638c639a85146102885780638da5cb5b146102b3576100fe565b8063305a905a116100c6578063305a905a146101bf578063476343ee146101e857806358a86e1d146101ff57806360c6d8ae1461022a576100fe565b8063107a274a1461010357806312065fe01461014257806312e8e2c31461016d578063305a67a814610196576100fe565b366100fe57005b600080fd5b34801561010f57600080fd5b5061012a60048036038101906101259190611a14565b6103ac565b60405161013993929190611aac565b60405180910390f35b34801561014e57600080fd5b5061015761046a565b6040516101649190611ae3565b60405180910390f35b34801561017957600080fd5b50610194600480360381019061018f9190611a14565b610472565b005b3480156101a257600080fd5b506101bd60048036038101906101b89190611a14565b6104ff565b005b3480156101cb57600080fd5b506101e660048036038101906101e19190611afe565b6106d9565b005b3480156101f457600080fd5b506101fd610cf7565b005b34801561020b57600080fd5b50610214610e18565b6040516102219190611b9d565b60405180910390f35b34801561023657600080fd5b5061023f610e3e565b60405161024c9190611ae3565b60405180910390f35b61026f600480360381019061026a9190611a14565b610e44565b005b34801561027d57600080fd5b506102866113e0565b005b34801561029457600080fd5b5061029d6113f4565b6040516102aa9190611ae3565b60405180910390f35b3480156102bf57600080fd5b506102c86113fa565b6040516102d59190611bb8565b60405180910390f35b3480156102ea57600080fd5b5061030560048036038101906103009190611afe565b611424565b005b34801561031357600080fd5b5061032e60048036038101906103299190611a14565b61172d565b60405161033d93929190611aac565b60405180910390f35b34801561035257600080fd5b5061036d60048036038101906103689190611bff565b611784565b005b34801561037b57600080fd5b5061039660048036038101906103919190611a14565b611807565b6040516103a39190611c2c565b60405180910390f35b600080600080600360008681526020019081526020016000206040518060600160405290816000820160009054906101000a900473ffffffffffffffffffffffffffffffffffffffff1673ffffffffffffffffffffffffffffffffffffffff1673ffffffffffffffffffffffffffffffffffffffff168152602001600182015481526020016002820160009054906101000a900460ff1615151515815250509050806000015181602001518260400151935093509350509193909250565b600047905090565b61047a611834565b600a8111156104be576040517f08c379a00000000000000000000000000000000000000000000000000000000081526004016104b590611ca4565b60405180910390fd5b806004819055507f45610d581145924dd7090a5017e5f2b1d6f42213bb2e95707ff86846bbfcb1ca816040516104f49190611ae3565b60405180910390a150565b6105076118b2565b6000600360008381526020019081526020016000206040518060600160405290816000820160009054906101000a900473ffffffffffffffffffffffffffffffffffffffff1673ffffffffffffffffffffffffffffffffffffffff1673ffffffffffffffffffffffffffffffffffffffff168152602001600182015481526020016002820160009054906101000a900460ff161515151581525050905080604001516105e8576040517f08c379a00000000000000000000000000000000000000000000000000000000081526004016105df90611d10565b60405180910390fd5b3373ffffffffffffffffffffffffffffffffffffffff16816000015173ffffffffffffffffffffffffffffffffffffffff161461065a576040517f08c379a000000000000000000000000000000000000000000000000000000000815260040161065190611d7c565b60405180910390fd5b60006003600084815260200190815260200160002060020160006101000a81548160ff0219169083151502179055503373ffffffffffffffffffffffffffffffffffffffff16827f8e25282255ab31897df2b0456bb993ac7f84d376861aefd84901d2d63a7428a260405160405180910390a3506106d6611901565b50565b6106e16118b2565b6000600260009054906101000a900473ffffffffffffffffffffffffffffffffffffffff1690503373ffffffffffffffffffffffffffffffffffffffff168173ffffffffffffffffffffffffffffffffffffffff16636352211e856040518263ffffffff1660e01b81526004016107589190611ae3565b602060405180830381865afa158015610775573d6000803e3d6000fd5b505050506040513d601f19601f820116820180604052508101906107999190611db1565b73ffffffffffffffffffffffffffffffffffffffff16146107ef576040517f08c379a00000000000000000000000000000000000000000000000000000000081526004016107e690611e2a565b60405180910390fd5b6000600260009054906101000a900473ffffffffffffffffffffffffffffffffffffffff1673ffffffffffffffffffffffffffffffffffffffff166350b44712856040518263ffffffff1660e01b815260040161084c9190611ae3565b608060405180830381865afa158015610869573d6000803e3d6000fd5b505050506040513d601f19601f8201168201806040525081019061088d9190611e8b565b509250505080156108d3576040517f08c379a00000000000000000000000000000000000000000000000000000000081526004016108ca90611f3e565b60405180910390fd5b6000600260009054906101000a900473ffffffffffffffffffffffffffffffffffffffff1673ffffffffffffffffffffffffffffffffffffffff1663bb7818d4866040518263ffffffff1660e01b81526004016109309190611ae3565b602060405180830381865afa15801561094d573d6000803e3d6000fd5b505050506040513d601f19601f820116820180604052508101906109719190611f5e565b90506000600260009054906101000a900473ffffffffffffffffffffffffffffffffffffffff1673ffffffffffffffffffffffffffffffffffffffff1663e59e840b6040518163ffffffff1660e01b8152600401602060405180830381865afa1580156109e2573d6000803e3d6000fd5b505050506040513d601f19601f82011682018060405250810190610a069190611f5e565b9050600060648284610a189190611fba565b610a22919061202b565b83610a2d919061205c565b905080861115610a72576040517f08c379a0000000000000000000000000000000000000000000000000000000008152600401610a6990612102565b60405180910390fd5b3073ffffffffffffffffffffffffffffffffffffffff168573ffffffffffffffffffffffffffffffffffffffff1663081812fc896040518263ffffffff1660e01b8152600401610ac29190611ae3565b602060405180830381865afa158015610adf573d6000803e3d6000fd5b505050506040513d601f19601f82011682018060405250810190610b039190611db1565b73ffffffffffffffffffffffffffffffffffffffff161480610b9d57508473ffffffffffffffffffffffffffffffffffffffff1663e985e9c533306040518363ffffffff1660e01b8152600401610b5b929190612122565b602060405180830381865afa158015610b78573d6000803e3d6000fd5b505050506040513d601f19601f82011682018060405250810190610b9c919061214b565b5b610bdc576040517f08c379a0000000000000000000000000000000000000000000000000000000008152600401610bd3906121ea565b60405180910390fd5b60405180606001604052803373ffffffffffffffffffffffffffffffffffffffff168152602001878152602001600115158152506003600089815260200190815260200160002060008201518160000160006101000a81548173ffffffffffffffffffffffffffffffffffffffff021916908373ffffffffffffffffffffffffffffffffffffffff1602179055506020820151816001015560408201518160020160006101000a81548160ff0219169083151502179055509050503373ffffffffffffffffffffffffffffffffffffffff16877f22968ec3be3687b180f3544163a034b88d57b48159d9a7e9a1b610fdb2d05f8088604051610cde9190611ae3565b60405180910390a35050505050610cf3611901565b5050565b610cff611834565b610d076118b2565b6000600554905060008111610d51576040517f08c379a0000000000000000000000000000000000000000000000000000000008152600401610d4890612256565b60405180910390fd5b60006005819055506000610d636113fa565b73ffffffffffffffffffffffffffffffffffffffff1682604051610d86906122a7565b60006040518083038185875af1925050503d8060008114610dc3576040519150601f19603f3d011682016040523d82523d6000602084013e610dc8565b606091505b5050905080610e0c576040517f08c379a0000000000000000000000000000000000000000000000000000000008152600401610e0390612308565b60405180910390fd5b5050610e16611901565b565b600260009054906101000a900473ffffffffffffffffffffffffffffffffffffffff1681565b60055481565b610e4c6118b2565b6000600360008381526020019081526020016000206040518060600160405290816000820160009054906101000a900473ffffffffffffffffffffffffffffffffffffffff1673ffffffffffffffffffffffffffffffffffffffff1673ffffffffffffffffffffffffffffffffffffffff168152602001600182015481526020016002820160009054906101000a900460ff16151515158152505090508060400151610f2d576040517f08c379a0000000000000000000000000000000000000000000000000000000008152600401610f2490612374565b60405180910390fd5b8060200151341015610f74576040517f08c379a0000000000000000000000000000000000000000000000000000000008152600401610f6b906123e0565b60405180910390fd5b806000015173ffffffffffffffffffffffffffffffffffffffff163373ffffffffffffffffffffffffffffffffffffffff1603610fe6576040517f08c379a0000000000000000000000000000000000000000000000000000000008152600401610fdd9061244c565b60405180910390fd5b6000600260009054906101000a900473ffffffffffffffffffffffffffffffffffffffff169050816000015173ffffffffffffffffffffffffffffffffffffffff168173ffffffffffffffffffffffffffffffffffffffff16636352211e856040518263ffffffff1660e01b81526004016110619190611ae3565b602060405180830381865afa15801561107e573d6000803e3d6000fd5b505050506040513d601f19601f820116820180604052508101906110a29190611db1565b73ffffffffffffffffffffffffffffffffffffffff16146110f8576040517f08c379a00000000000000000000000000000000000000000000000000000000081526004016110ef906124b8565b60405180910390fd5b60006003600085815260200190815260200160002060020160006101000a81548160ff02191690831515021790555060006064600454846020015161113d9190611fba565b611147919061202b565b9050600081846020015161115b91906124d8565b90508273ffffffffffffffffffffffffffffffffffffffff166342842e0e856000015133886040518463ffffffff1660e01b815260040161119e9392919061250c565b600060405180830381600087803b1580156111b857600080fd5b505af11580156111cc573d6000803e3d6000fd5b505050506000846000015173ffffffffffffffffffffffffffffffffffffffff16826040516111fa906122a7565b60006040518083038185875af1925050503d8060008114611237576040519150601f19603f3d011682016040523d82523d6000602084013e61123c565b606091505b5050905080611280576040517f08c379a00000000000000000000000000000000000000000000000000000000081526004016112779061258f565b60405180910390fd5b8260056000828254611292919061205c565b9250508190555084602001513411156113625760003373ffffffffffffffffffffffffffffffffffffffff168660200151346112ce91906124d8565b6040516112da906122a7565b60006040518083038185875af1925050503d8060008114611317576040519150601f19603f3d011682016040523d82523d6000602084013e61131c565b606091505b5050905080611360576040517f08c379a0000000000000000000000000000000000000000000000000000000008152600401611357906125fb565b60405180910390fd5b505b3373ffffffffffffffffffffffffffffffffffffffff16856000015173ffffffffffffffffffffffffffffffffffffffff16877f2bbc64d6afd28a753f6c5e4aaa894f1d684c44a0e080167eae104ac8505cfebd88602001516040516113c89190611ae3565b60405180910390a450505050506113dd611901565b50565b6113e8611834565b6113f2600061190b565b565b60045481565b6000600160009054906101000a900473ffffffffffffffffffffffffffffffffffffffff16905090565b61142c6118b2565b60006003600084815260200190815260200160002090508060020160009054906101000a900460ff16611494576040517f08c379a000000000000000000000000000000000000000000000000000000000815260040161148b90611d10565b60405180910390fd5b3373ffffffffffffffffffffffffffffffffffffffff168160000160009054906101000a900473ffffffffffffffffffffffffffffffffffffffff1673ffffffffffffffffffffffffffffffffffffffff1614611526576040517f08c379a000000000000000000000000000000000000000000000000000000000815260040161151d90611d7c565b60405180910390fd5b6000600260009054906101000a900473ffffffffffffffffffffffffffffffffffffffff1673ffffffffffffffffffffffffffffffffffffffff1663bb7818d4856040518263ffffffff1660e01b81526004016115839190611ae3565b602060405180830381865afa1580156115a0573d6000803e3d6000fd5b505050506040513d601f19601f820116820180604052508101906115c49190611f5e565b90506000600260009054906101000a900473ffffffffffffffffffffffffffffffffffffffff1673ffffffffffffffffffffffffffffffffffffffff1663e59e840b6040518163ffffffff1660e01b8152600401602060405180830381865afa158015611635573d6000803e3d6000fd5b505050506040513d601f19601f820116820180604052508101906116599190611f5e565b905060006064828461166b9190611fba565b611675919061202b565b83611680919061205c565b9050808511156116c5576040517f08c379a00000000000000000000000000000000000000000000000000000000081526004016116bc90612102565b60405180910390fd5b8484600101819055503373ffffffffffffffffffffffffffffffffffffffff16867f22968ec3be3687b180f3544163a034b88d57b48159d9a7e9a1b610fdb2d05f80876040516117159190611ae3565b60405180910390a350505050611729611901565b5050565b60036020528060005260406000206000915090508060000160009054906101000a900473ffffffffffffffffffffffffffffffffffffffff16908060010154908060020160009054906101000a900460ff16905083565b61178c611834565b600073ffffffffffffffffffffffffffffffffffffffff168173ffffffffffffffffffffffffffffffffffffffff16036117fb576040517f08c379a00000000000000000000000000000000000000000000000000000000081526004016117f29061268d565b60405180910390fd5b6118048161190b565b50565b60006003600083815260200190815260200160002060020160009054906101000a900460ff169050919050565b61183c6119d1565b73ffffffffffffffffffffffffffffffffffffffff1661185a6113fa565b73ffffffffffffffffffffffffffffffffffffffff16146118b0576040517f08c379a00000000000000000000000000000000000000000000000000000000081526004016118a7906126f9565b60405180910390fd5b565b6002600054036118f7576040517f08c379a00000000000000000000000000000000000000000000000000000000081526004016118ee90612765565b60405180910390fd5b6002600081905550565b6001600081905550565b6000600160009054906101000a900473ffffffffffffffffffffffffffffffffffffffff16905081600160006101000a81548173ffffffffffffffffffffffffffffffffffffffff021916908373ffffffffffffffffffffffffffffffffffffffff1602179055508173ffffffffffffffffffffffffffffffffffffffff168173ffffffffffffffffffffffffffffffffffffffff167f8be0079c531659141344cd1fd0a4f28419497f9722a3daafe3b4186f6b6457e060405160405180910390a35050565b600033905090565b600080fd5b6000819050919050565b6119f1816119de565b81146119fc57600080fd5b50565b600081359050611a0e816119e8565b92915050565b600060208284031215611a2a57611a296119d9565b5b6000611a38848285016119ff565b91505092915050565b600073ffffffffffffffffffffffffffffffffffffffff82169050919050565b6000611a6c82611a41565b9050919050565b611a7c81611a61565b82525050565b611a8b816119de565b82525050565b60008115159050919050565b611aa681611a91565b82525050565b6000606082019050611ac16000830186611a73565b611ace6020830185611a82565b611adb6040830184611a9d565b949350505050565b6000602082019050611af86000830184611a82565b92915050565b60008060408385031215611b1557611b146119d9565b5b6000611b23858286016119ff565b9250506020611b34858286016119ff565b9150509250929050565b6000819050919050565b6000611b63611b5e611b5984611a41565b611b3e565b611a41565b9050919050565b6000611b7582611b48565b9050919050565b6000611b8782611b6a565b9050919050565b611b9781611b7c565b82525050565b6000602082019050611bb26000830184611b8e565b92915050565b6000602082019050611bcd6000830184611a73565b92915050565b611bdc81611a61565b8114611be757600080fd5b50565b600081359050611bf981611bd3565b92915050565b600060208284031215611c1557611c146119d9565b5b6000611c2384828501611bea565b91505092915050565b6000602082019050611c416000830184611a9d565b92915050565b600082825260208201905092915050565b7f46656520746f6f206869676820286d6178203130252900000000000000000000600082015250565b6000611c8e601683611c47565b9150611c9982611c58565b602082019050919050565b60006020820190508181036000830152611cbd81611c81565b9050919050565b7f4c697374696e67206e6f74206163746976650000000000000000000000000000600082015250565b6000611cfa601283611c47565b9150611d0582611cc4565b602082019050919050565b60006020820190508181036000830152611d2981611ced565b9050919050565b7f4e6f74207468652073656c6c6572000000000000000000000000000000000000600082015250565b6000611d66600e83611c47565b9150611d7182611d30565b602082019050919050565b60006020820190508181036000830152611d9581611d59565b9050919050565b600081519050611dab81611bd3565b92915050565b600060208284031215611dc757611dc66119d9565b5b6000611dd584828501611d9c565b91505092915050565b7f4e6f7420746865206f776e657200000000000000000000000000000000000000600082015250565b6000611e14600d83611c47565b9150611e1f82611dde565b602082019050919050565b60006020820190508181036000830152611e4381611e07565b9050919050565b600081519050611e59816119e8565b92915050565b611e6881611a91565b8114611e7357600080fd5b50565b600081519050611e8581611e5f565b92915050565b60008060008060808587031215611ea557611ea46119d9565b5b6000611eb387828801611e4a565b9450506020611ec487828801611e4a565b9350506040611ed587828801611e76565b9250506060611ee687828801611e4a565b91505092959194509250565b7f43616e6e6f742073656c6c2075736564207469636b6574000000000000000000600082015250565b6000611f28601783611c47565b9150611f3382611ef2565b602082019050919050565b60006020820190508181036000830152611f5781611f1b565b9050919050565b600060208284031215611f7457611f736119d9565b5b6000611f8284828501611e4a565b91505092915050565b7f4e487b7100000000000000000000000000000000000000000000000000000000600052601160045260246000fd5b6000611fc5826119de565b9150611fd0836119de565b9250828202611fde816119de565b91508282048414831517611ff557611ff4611f8b565b5b5092915050565b7f4e487b7100000000000000000000000000000000000000000000000000000000600052601260045260246000fd5b6000612036826119de565b9150612041836119de565b92508261205157612050611ffc565b5b828204905092915050565b6000612067826119de565b9150612072836119de565b925082820190508082111561208a57612089611f8b565b5b92915050565b7f50726963652065786365656473206d6178696d756d20616c6c6f776564206d6160008201527f726b757000000000000000000000000000000000000000000000000000000000602082015250565b60006120ec602483611c47565b91506120f782612090565b604082019050919050565b6000602082019050818103600083015261211b816120df565b9050919050565b60006040820190506121376000830185611a73565b6121446020830184611a73565b9392505050565b600060208284031215612161576121606119d9565b5b600061216f84828501611e76565b91505092915050565b7f4d61726b6574706c616365206e6f7420617070726f76656420746f207472616e60008201527f73666572207469636b6574000000000000000000000000000000000000000000602082015250565b60006121d4602b83611c47565b91506121df82612178565b604082019050919050565b60006020820190508181036000830152612203816121c7565b9050919050565b7f4e6f206665657320746f20776974686472617700000000000000000000000000600082015250565b6000612240601383611c47565b915061224b8261220a565b602082019050919050565b6000602082019050818103600083015261226f81612233565b9050919050565b600081905092915050565b50565b6000612291600083612276565b915061229c82612281565b600082019050919050565b60006122b282612284565b9150819050919050565b7f5769746864726177616c206661696c6564000000000000000000000000000000600082015250565b60006122f2601183611c47565b91506122fd826122bc565b602082019050919050565b60006020820190508181036000830152612321816122e5565b9050919050565b7f5469636b6574206e6f74206c6973746564000000000000000000000000000000600082015250565b600061235e601183611c47565b915061236982612328565b602082019050919050565b6000602082019050818103600083015261238d81612351565b9050919050565b7f496e73756666696369656e74207061796d656e74000000000000000000000000600082015250565b60006123ca601483611c47565b91506123d582612394565b602082019050919050565b600060208201905081810360008301526123f9816123bd565b9050919050565b7f43616e6e6f742062757920796f7572206f776e207469636b6574000000000000600082015250565b6000612436601a83611c47565b915061244182612400565b602082019050919050565b6000602082019050818103600083015261246581612429565b9050919050565b7f53656c6c6572206e6f206c6f6e676572206f776e73207469636b657400000000600082015250565b60006124a2601c83611c47565b91506124ad8261246c565b602082019050919050565b600060208201905081810360008301526124d181612495565b9050919050565b60006124e3826119de565b91506124ee836119de565b925082820390508181111561250657612505611f8b565b5b92915050565b60006060820190506125216000830186611a73565b61252e6020830185611a73565b61253b6040830184611a82565b949350505050565b7f5061796d656e7420746f2073656c6c6572206661696c65640000000000000000600082015250565b6000612579601883611c47565b915061258482612543565b602082019050919050565b600060208201905081810360008301526125a88161256c565b9050919050565b7f526566756e64206661696c656400000000000000000000000000000000000000600082015250565b60006125e5600d83611c47565b91506125f0826125af565b602082019050919050565b60006020820190508181036000830152612614816125d8565b9050919050565b7f4f776e61626c653a206e6577206f776e657220697320746865207a65726f206160008201527f6464726573730000000000000000000000000000000000000000000000000000602082015250565b6000612677602683611c47565b91506126828261261b565b604082019050919050565b600060208201905081810360008301526126a68161266a565b9050919050565b7f4f776e61626c653a2063616c6c6572206973206e6f7420746865206f776e6572600082015250565b60006126e3602083611c47565b91506126ee826126ad565b602082019050919050565b60006020820190508181036000830152612712816126d6565b9050919050565b7f5265656e7472616e637947756172643a207265656e7472616e742063616c6c00600082015250565b600061274f601f83611c47565b915061275a82612719565b602082019050919050565b6000602082019050818103600083015261277e81612742565b905091905056fea2646970667358221220798a3c271faddb3bc787756ad14720d85ea9a5e9ffe0723e0992081df767408664736f6c634300081c0033",
  "linkReferences": {},
  "deployedLinkReferences": {}
}